{"abi":[{"type":"fallback","stateMutability":"nonpayable"},{"type":"function","name":"ENTRY_NTL","inputs":[],"outputs":[{"name":"","type":"uint64","internalType":"uint64"}],"stateMutability":"view"},{"type":"function","name":"HOLD","inputs":[],"outputs":[{"name":"","type":"uint64","internalType":"uint64"}],"stateMutability":"view"},{"type":"function","name":"TOTAL","inputs":[],"outputs":[{"name":"","type":"uint64","internalType":"uint64"}],"stateMutability":"view"},{"type":"function","name":"getSpotBalance","inputs":[],"outputs":[{"name":"","type":"uint64","internalType":"uint64"},{"name":"","type":"uint64","internalType":"uint64"},{"name":"","type":"uint64","internalType":"uint64"}],"stateMutability":"pure"},{"type":"function","name":"sendHypeOnL1","inputs":[{"name":"","type":"address","internalType":"address"},{"name":"","type":"uint64","internalType":"uint64"}],"outputs":[{"name":"","type":"bool","internalType":"bool"}],"stateMutability":"pure"}],"bytecode":{"object":"0x6080604052348015600e575f5ffd5b506101998061001c5f395ff3fe608060405234801561000f575f5ffd5b5060043610610055575f3560e01c8063196958011461009157806327efc086146100bc5780635be746b6146100df5780636129d08214610103578063d0886f971461010b575b60408051620f42406020808301919091526207a1208284015260c860608084019190915283518084039091018152608090920190925280519101f35b6100a761009f366004610115565b600192915050565b60405190151581526020015b60405180910390f35b6100c6620f424081565b60405167ffffffffffffffff90911681526020016100b3565b60408051620f424081526207a120602082015260c8918101919091526060016100b3565b6100c660c881565b6100c66207a12081565b5f5f60408385031215610126575f5ffd5b82356001600160a01b038116811461013c575f5ffd5b9150602083013567ffffffffffffffff81168114610158575f5ffd5b80915050925092905056fea2646970667358221220475973f0b3399ea2152d93ca9aa18d9e0f969f8961bfa1ca654442d36ed36fec64736f6c634300081c0033","linkReferences":{}},"methodIdentifiers":{"ENTRY_NTL()":"6129d082","HOLD()":"d0886f97","TOTAL()":"27efc086","getSpotBalance()":"5be746b6","sendHypeOnL1(address,uint64)":"19695801"},"id":24}