{"abi":[{"type":"constructor","inputs":[],"stateMutability":"nonpayable"},{"type":"function","name":"L1_HYPE_TOKEN_NUMBER","inputs":[],"outputs":[{"name":"","type":"uint64","internalType":"uint64"}],"stateMutability":"view"},{"type":"function","name":"L1_WRITE_ADDRESS","inputs":[],"outputs":[{"name":"","type":"address","internalType":"address"}],"stateMutability":"view"},{"type":"function","name":"NATIVE_TRANSFER_ADDRESS","inputs":[],"outputs":[{"name":"","type":"address","internalType":"address"}],"stateMutability":"view"},{"type":"function","name":"fromContractSpotToEvm","inputs":[{"name":"_wei","type":"uint64","internalType":"uint64"}],"outputs":[],"stateMutability":"nonpayable"},{"type":"function","name":"fromEvmToContractSpot","inputs":[],"outputs":[],"stateMutability":"payable"},{"type":"function","name":"fromEvmToSpot","inputs":[],"outputs":[],"stateMutability":"payable"},{"type":"function","name":"fromEvmToStaking","inputs":[{"name":"validator","type":"address","internalType":"address"}],"outputs":[],"stateMutability":"payable"},{"type":"function","name":"fromSpotToEvm","inputs":[{"name":"_wei","type":"uint64","internalType":"uint64"}],"outputs":[],"stateMutability":"nonpayable"},{"type":"function","name":"getContractSpotBalance","inputs":[],"outputs":[{"name":"","type":"tuple","internalType":"struct L1Read.SpotBalance","components":[{"name":"total","type":"uint64","internalType":"uint64"},{"name":"hold","type":"uint64","internalType":"uint64"},{"name":"entryNtl","type":"uint64","internalType":"uint64"}]}],"stateMutability":"view"},{"type":"function","name":"getContractStakeBalance","inputs":[],"outputs":[{"name":"","type":"uint64","internalType":"uint64"}],"stateMutability":"view"},{"type":"function","name":"getSpotBalance","inputs":[{"name":"user","type":"address","internalType":"address"}],"outputs":[{"name":"","type":"tuple","internalType":"struct L1Read.SpotBalance","components":[{"name":"total","type":"uint64","internalType":"uint64"},{"name":"hold","type":"uint64","internalType":"uint64"},{"name":"entryNtl","type":"uint64","internalType":"uint64"}]}],"stateMutability":"view"},{"type":"function","name":"l1Read","inputs":[],"outputs":[{"name":"","type":"address","internalType":"contract L1Read"}],"stateMutability":"view"},{"type":"function","name":"sendContractCDeposit","inputs":[{"name":"_wei","type":"uint64","internalType":"uint64"}],"outputs":[],"stateMutability":"nonpayable"},{"type":"function","name":"sendContractCWithdrawal","inputs":[{"name":"_wei","type":"uint64","internalType":"uint64"}],"outputs":[],"stateMutability":"nonpayable"},{"type":"function","name":"sendContractHypeOnL1","inputs":[{"name":"destination","type":"address","internalType":"address"},{"name":"_wei","type":"uint64","internalType":"uint64"}],"outputs":[],"stateMutability":"nonpayable"},{"type":"function","name":"sendHypeOnL1","inputs":[{"name":"destination","type":"address","internalType":"address"},{"name":"_wei","type":"uint64","internalType":"uint64"}],"outputs":[],"stateMutability":"nonpayable"},{"type":"event","name":"ContractCDeposit","inputs":[{"name":"_wei","type":"uint64","indexed":false,"internalType":"uint64"}],"anonymous":false},{"type":"event","name":"ContractCWithdrawal","inputs":[{"name":"_wei","type":"uint64","indexed":false,"internalType":"uint64"}],"anonymous":false},{"type":"event","name":"ContractSpotToEvm","inputs":[{"name":"user","type":"address","indexed":true,"internalType":"address"},{"name":"_wei","type":"uint64","indexed":false,"internalType":"uint64"}],"anonymous":false},{"type":"event","name":"EvmToContractSpot","inputs":[{"name":"user","type":"address","indexed":true,"internalType":"address"},{"name":"_wei","type":"uint64","indexed":false,"internalType":"uint64"}],"anonymous":false},{"type":"event","name":"EvmToSpot","inputs":[{"name":"user","type":"address","indexed":true,"internalType":"address"},{"name":"_wei","type":"uint64","indexed":false,"internalType":"uint64"}],"anonymous":false},{"type":"event","name":"EvmToStaking","inputs":[{"name":"user","type":"address","indexed":true,"internalType":"address"},{"name":"validator","type":"address","indexed":true,"internalType":"address"},{"name":"_wei","type":"uint64","indexed":false,"internalType":"uint64"}],"anonymous":false},{"type":"event","name":"SendSpotOnL1","inputs":[{"name":"user","type":"address","indexed":true,"internalType":"address"},{"name":"destination","type":"address","indexed":true,"internalType":"address"},{"name":"token","type":"uint64","indexed":false,"internalType":"uint64"},{"name":"_wei","type":"uint64","indexed":false,"internalType":"uint64"}],"anonymous":false},{"type":"event","name":"SpotToEvm","inputs":[{"name":"user","type":"address","indexed":true,"internalType":"address"},{"name":"_wei","type":"uint64","indexed":false,"internalType":"uint64"}],"anonymous":false}],"bytecode":{"object":"0x6080604052348015600e575f5ffd5b505f80546001600160a01b031916733333333333333333333333333333333333333333179055604051603e90607b565b604051809103905ff0801580156056573d5f5f3e3d5ffd5b50600180546001600160a01b0319166001600160a01b03929092169190911790556088565b6110b58061155d83390190565b6114c8806100955f395ff3fe6080604052600436106100ef575f3560e01c8063a85fd4f511610087578063bc21848211610057578063bc2184821461027e578063ee29a11c1461029d578063f4fce7f9146102bc578063fcc52177146102db575f5ffd5b8063a85fd4f51461020c578063a9a954dd1461022b578063b7dc64f71461024a578063b8da04191461025f575f5ffd5b80635a6de4c6116100c25780635a6de4c6146101605780635c85dc991461019f5780636e0de009146101e557806371bbcc79146101ed575f5ffd5b806302b8c621146100f35780631969580114610108578063338dd567146101275780633acaacb214610158575b5f5ffd5b6101066101013660046111e6565b610302565b005b348015610113575f5ffd5b50610106610122366004611216565b6104df565b348015610132575f5ffd5b5061013b61068e565b6040516001600160401b0390911681526020015b60405180910390f35b610106610703565b34801561016b575f5ffd5b5061018773333333333333333333333333333333333333333381565b6040516001600160a01b03909116815260200161014f565b3480156101aa575f5ffd5b506101b36107e9565b6040805182516001600160401b039081168252602080850151821690830152928201519092169082015260600161014f565b61010661087e565b3480156101f8575f5ffd5b5061010661020736600461124b565b61094f565b348015610217575f5ffd5b5061010661022636600461124b565b610af2565b348015610236575f5ffd5b506101b36102453660046111e6565b610cac565b348015610255575f5ffd5b5061013b61045181565b34801561026a575f5ffd5b5061010661027936600461124b565b610d42565b348015610289575f5ffd5b50600154610187906001600160a01b031681565b3480156102a8575f5ffd5b506101066102b736600461124b565b610ef4565b3480156102c7575f5ffd5b506101066102d6366004611216565b61108e565b3480156102e6575f5ffd5b5061018773222222222222222222222222222222222222222281565b5f341161032a5760405162461bcd60e51b815260040161032190611266565b60405180910390fd5b60405134905f90732222222222222222222222222222222222222222906001600160401b038416908381818185875af1925050503d805f8114610388576040519150601f19603f3d011682016040523d82523d5f602084013e61038d565b606091505b50509050806103ae5760405162461bcd60e51b815260040161032190611294565b5f6103be6402540be400846112c4565b5f5460405163414fa43760e01b81526001600160401b03831660048201529192506001600160a01b03169063414fa437906024015f604051808303815f87803b158015610409575f5ffd5b505af115801561041b573d5f5f3e3d5ffd5b50505f805460405163db30aa5360e01b81526001600160a01b0389811660048301526001600160401b038716602483015260448201939093529116925063db30aa5391506064015f604051808303815f87803b158015610479575f5ffd5b505af115801561048b573d5f5f3e3d5ffd5b50506040516001600160401b03861681526001600160a01b03871692503391507f0467d8eca1c0787b136bd2d8222b464457ab3db940963487da394495119a6e8c906020015b60405180910390a350505050565b60015460405163a69610d160e01b81525f916001600160a01b03169063a69610d190610513903390610451906004016112fd565b606060405180830381865afa15801561052e573d5f5f3e3d5ffd5b505050506040513d601f19601f82011682018060405250810190610552919061131f565b9050816001600160401b0316815f01516001600160401b0316116105885760405162461bcd60e51b81526004016103219061139c565b5f80546040516001600160a01b03909116906105ae9086906104519087906024016113cb565b60408051601f198184030181529181526020820180516001600160e01b0316630b0ac0ab60e01b179052516105e391906113f5565b5f60405180830381855af49150503d805f811461061b576040519150601f19603f3d011682016040523d82523d5f602084013e610620565b606091505b50509050806106415760405162461bcd60e51b81526004016103219061140b565b6040805161045181526001600160401b03851660208201526001600160a01b0386169133917fd53dd3fce4f71f32c4b93f9c89e53a4556cf966cc4d3e6817535262dbd97700091016104d1565b60015460405163ce513b6f60e01b81523060048201525f9182916001600160a01b039091169063ce513b6f90602401602060405180830381865afa1580156106d8573d5f5f3e3d5ffd5b505050506040513d601f19601f820116820180604052508101906106fc919061143b565b5192915050565b5f34116107225760405162461bcd60e51b815260040161032190611266565b60405134905f90732222222222222222222222222222222222222222906001600160401b038416908381818185875af1925050503d805f8114610780576040519150601f19603f3d011682016040523d82523d5f602084013e610785565b606091505b50509050806107a65760405162461bcd60e51b815260040161032190611294565b6040516001600160401b038316815233907f0c4de88f9a17d59e28c49458656c5bba196e1aa06a30219fbd63397dd37b0355906020015b60405180910390a25050565b604080516060810182525f808252602082018190529181019190915260015460405163a69610d160e01b81525f916001600160a01b03169063a69610d190610839903090610451906004016112fd565b606060405180830381865afa158015610854573d5f5f3e3d5ffd5b505050506040513d601f19601f82011682018060405250810190610878919061131f565b92915050565b5f341161089d5760405162461bcd60e51b815260040161032190611266565b60405134905f907322222222222222222222222222222222222222229082818181855af49150503d805f81146108ee576040519150601f19603f3d011682016040523d82523d5f602084013e6108f3565b606091505b50509050806109145760405162461bcd60e51b815260040161032190611294565b6040516001600160401b038316815233907f4436822928c3e318621d3340b8fd5219805a079b473a43fd93e344a263b66d85906020016107dd565b60015460405163a69610d160e01b81525f916001600160a01b03169063a69610d190610983903090610451906004016112fd565b606060405180830381865afa15801561099e573d5f5f3e3d5ffd5b505050506040513d601f19601f820116820180604052508101906109c2919061131f565b9050816001600160401b0316815f01516001600160401b0316116109f85760405162461bcd60e51b81526004016103219061139c565b5f80546040516001600160401b03851660248201526001600160a01b039091169060440160408051601f198184030181529181526020820180516001600160e01b031663414fa43760e01b17905251610a5191906113f5565b5f604051808303815f865af19150503d805f8114610a8a576040519150601f19603f3d011682016040523d82523d5f602084013e610a8f565b606091505b5050905080610ab05760405162461bcd60e51b81526004016103219061140b565b6040516001600160401b03841681527f6c95c28de583ae8e9cb78152561c599e1c930bcc3254cd92bef5c181bd9df0e9906020015b60405180910390a1505050565b60015460405163a69610d160e01b81525f916001600160a01b03169063a69610d190610b26903390610451906004016112fd565b606060405180830381865afa158015610b41573d5f5f3e3d5ffd5b505050506040513d601f19601f82011682018060405250810190610b65919061131f565b9050816001600160401b0316815f01516001600160401b031611610b9b5760405162461bcd60e51b81526004016103219061139c565b5f80546040516001600160a01b0390911690610bd590732222222222222222222222222222222222222222906104519087906024016113cb565b60408051601f198184030181529181526020820180516001600160e01b0316630b0ac0ab60e01b17905251610c0a91906113f5565b5f60405180830381855af49150503d805f8114610c42576040519150601f19603f3d011682016040523d82523d5f602084013e610c47565b606091505b5050905080610c685760405162461bcd60e51b81526004016103219061140b565b6040516001600160401b038416815233907fe11eae822954044124260a0169e5a41cc788f7ac1d19cddc9a0668d6e4cf09d6906020015b60405180910390a2505050565b604080516060810182525f808252602082018190529181019190915260015460405163a69610d160e01b81525f916001600160a01b03169063a69610d190610cfc908690610451906004016112fd565b606060405180830381865afa158015610d17573d5f5f3e3d5ffd5b505050506040513d601f19601f82011682018060405250810190610d3b919061131f565b9392505050565b60015460405163a69610d160e01b81525f916001600160a01b03169063a69610d190610d76903090610451906004016112fd565b606060405180830381865afa158015610d91573d5f5f3e3d5ffd5b505050506040513d601f19601f82011682018060405250810190610db5919061131f565b9050816001600160401b0316815f01516001600160401b031611610deb5760405162461bcd60e51b81526004016103219061139c565b5f80546040516001600160a01b0390911690610e2590732222222222222222222222222222222222222222906104519087906024016113cb565b60408051601f198184030181529181526020820180516001600160e01b0316630b0ac0ab60e01b17905251610e5a91906113f5565b5f604051808303815f865af19150503d805f8114610e93576040519150601f19603f3d011682016040523d82523d5f602084013e610e98565b606091505b5050905080610eb95760405162461bcd60e51b81526004016103219061140b565b6040516001600160401b038416815233907f5b08a2ca95260fc804456f0cc20da2988c8f7bf220d10a2fc55194d041ddfbb190602001610c9f565b60015460405163a69610d160e01b81525f916001600160a01b03169063a69610d190610f28903090610451906004016112fd565b606060405180830381865afa158015610f43573d5f5f3e3d5ffd5b505050506040513d601f19601f82011682018060405250810190610f67919061131f565b9050816001600160401b0316815f01516001600160401b031611610f9d5760405162461bcd60e51b81526004016103219061139c565b5f80546040516001600160401b03851660248201526001600160a01b039091169060440160408051601f198184030181529181526020820180516001600160e01b0316634248c68f60e11b17905251610ff691906113f5565b5f604051808303815f865af19150503d805f811461102f576040519150601f19603f3d011682016040523d82523d5f602084013e611034565b606091505b50509050806110555760405162461bcd60e51b81526004016103219061140b565b6040516001600160401b03841681527f104ef7b786831e0cb17c7c3df92950a50fd0408162c14e2a420253689b8acae790602001610ae5565b60015460405163a69610d160e01b81525f916001600160a01b03169063a69610d1906110c2903090610451906004016112fd565b606060405180830381865afa1580156110dd573d5f5f3e3d5ffd5b505050506040513d601f19601f82011682018060405250810190611101919061131f565b9050816001600160401b0316815f01516001600160401b0316116111375760405162461bcd60e51b81526004016103219061139c565b5f80546040516001600160a01b039091169061115d9086906104519087906024016113cb565b60408051601f198184030181529181526020820180516001600160e01b0316630b0ac0ab60e01b1790525161119291906113f5565b5f604051808303815f865af19150503d805f811461061b576040519150601f19603f3d011682016040523d82523d5f602084013e610620565b80356001600160a01b03811681146111e1575f5ffd5b919050565b5f602082840312156111f6575f5ffd5b610d3b826111cb565b6001600160401b0381168114611213575f5ffd5b50565b5f5f60408385031215611227575f5ffd5b611230836111cb565b91506020830135611240816111ff565b809150509250929050565b5f6020828403121561125b575f5ffd5b8135610d3b816111ff565b60208082526014908201527326bab9ba1039b2b73210242ca822903a37b5b2b760611b604082015260600190565b60208082526016908201527513985d1a5d9948151c985b9cd9995c8811985a5b195960521b604082015260600190565b5f6001600160401b038316806112e857634e487b7160e01b5f52601260045260245ffd5b806001600160401b0384160491505092915050565b6001600160a01b039290921682526001600160401b0316602082015260400190565b5f6060828403128015611330575f5ffd5b50604051606081016001600160401b038111828210171561135f57634e487b7160e01b5f52604160045260245ffd5b604052825161136d816111ff565b8152602083015161137d816111ff565b60208201526040830151611390816111ff565b60408201529392505050565b6020808252601590820152744e6f7420656e6f7567682048595045206f6e204c3160581b604082015260600190565b6001600160a01b039390931683526001600160401b03918216602084015216604082015260600190565b5f82518060208501845e5f920191825250919050565b60208082526016908201527514d95b990814dc1bdd081bdb88130c4811985a5b195960521b604082015260600190565b5f602082840312801561144c575f5ffd5b50604051602081016001600160401b038111828210171561147b57634e487b7160e01b5f52604160045260245ffd5b6040528251611489816111ff565b8152939250505056fea26469706673582212207442a0db7df1bd86d31837ba964f1b7ddb2c5f725b7cef8bd4bb637566b8db4e64736f6c634300081c00336080604052348015600e575f5ffd5b506110998061001c5f395ff3fe608060405234801561000f575f5ffd5b506004361061009b575f3560e01c80639070275911610063578063907027591461019f578063a69610d1146101b2578063bffe3486146101f7578063ce513b6f14610217578063ee1b5af114610242575f5ffd5b8063298c90051461009f57806329ebb2ba146100c457806337f980a5146100d75780633e37cfff1461014557806389cf7c8914610158575b5f5ffd5b6100a7610255565b6040516001600160401b0390911681526020015b60405180910390f35b6100a76100d2366004610bc0565b610334565b6100ea6100e5366004610bf7565b610414565b6040516100bb91905f6080820190506001600160401b0383511682526001600160401b0360208401511660208301526001600160401b0360408401511660408301526001600160401b03606084015116606083015292915050565b6100a7610153366004610bc0565b610523565b61016b610166366004610c12565b6105e7565b60408051825160070b815260208084015163ffffffff1690820152918101516001600160401b0316908201526060016100bb565b6100a76101ad366004610c56565b6106f4565b6101c56101c0366004610c85565b6107ba565b6040805182516001600160401b03908116825260208085015182169083015292820151909216908201526060016100bb565b61020a610205366004610bf7565b6108ce565b6040516100bb9190610cbc565b61022a610225366004610bf7565b6109b6565b60405190516001600160401b031681526020016100bb565b61022a610250366004610d2c565b610aab565b604080515f80825260208201928390529182916060916108099161027891610d58565b5f60405180830381855afa9150503d805f81146102b0576040519150601f19603f3d011682016040523d82523d5f602084013e6102b5565b606091505b509092509050816103195760405162461bcd60e51b8152602060048201526024808201527f4c31426c6f636b4e756d62657220707265636f6d70696c652063616c6c2066616044820152631a5b195960e21b60648201526084015b60405180910390fd5b8080602001905181019061032d9190610d6e565b9250505090565b6040805161ffff831660208201525f918291606091610807910160408051601f198184030181529082905261036891610d58565b5f60405180830381855afa9150503d805f81146103a0576040519150601f19603f3d011682016040523d82523d5f602084013e6103a5565b606091505b509092509050816103f85760405162461bcd60e51b815260206004820152601f60248201527f4f7261636c65507820707265636f6d70696c652063616c6c206661696c6564006044820152606401610310565b8080602001905181019061040c9190610d6e565b949350505050565b604080516080810182525f808252602082018190529181018290526060810191909152604080516001600160a01b03841660208201525f91606091610805910160408051601f198184030181529082905261046e91610d58565b5f60405180830381855afa9150503d805f81146104a6576040519150601f19603f3d011682016040523d82523d5f602084013e6104ab565b606091505b5090925090508161050f5760405162461bcd60e51b815260206004820152602860248201527f44656c656761746f727953756d6d61727920707265636f6d70696c652063616c6044820152671b0819985a5b195960c21b6064820152608401610310565b8080602001905181019061040c9190610df5565b6040805161ffff831660208201525f918291606091610806910160408051601f198184030181529082905261055791610d58565b5f60405180830381855afa9150503d805f811461058f576040519150601f19603f3d011682016040523d82523d5f602084013e610594565b606091505b509092509050816103f85760405162461bcd60e51b815260206004820152601d60248201527f4d61726b507820707265636f6d70696c652063616c6c206661696c65640000006044820152606401610310565b604080516060810182525f8082526020820181905291810191909152604080516001600160a01b038516602082015261ffff8416918101919091525f9060609061080090820160408051601f198184030181529082905261064791610d58565b5f60405180830381855afa9150503d805f811461067f576040519150601f19603f3d011682016040523d82523d5f602084013e610684565b606091505b509092509050816106d75760405162461bcd60e51b815260206004820152601f60248201527f506f736974696f6e20707265636f6d70696c652063616c6c206661696c6564006044820152606401610310565b808060200190518101906106eb9190610e79565b95945050505050565b6040805163ffffffff831660208201525f918291606091610808910160408051601f198184030181529082905261072a91610d58565b5f60405180830381855afa9150503d805f8114610762576040519150601f19603f3d011682016040523d82523d5f602084013e610767565b606091505b509092509050816103f85760405162461bcd60e51b815260206004820152601d60248201527f53706f74507820707265636f6d70696c652063616c6c206661696c65640000006044820152606401610310565b604080516060810182525f8082526020820181905291810191909152604080516001600160a01b03851660208201526001600160401b038416918101919091525f9060609061080190820160408051601f198184030181529082905261081f91610d58565b5f60405180830381855afa9150503d805f8114610857576040519150601f19603f3d011682016040523d82523d5f602084013e61085c565b606091505b509092509050816108ba5760405162461bcd60e51b815260206004820152602260248201527f53706f7442616c616e636520707265636f6d70696c652063616c6c206661696c604482015261195960f21b6064820152608401610310565b808060200190518101906106eb9190610ed2565b604080516001600160a01b03831660208201526060915f918391610804910160408051601f198184030181529082905261090791610d58565b5f60405180830381855afa9150503d805f811461093f576040519150601f19603f3d011682016040523d82523d5f602084013e610944565b606091505b509092509050816109a25760405162461bcd60e51b815260206004820152602260248201527f44656c65676174696f6e7320707265636f6d70696c652063616c6c206661696c604482015261195960f21b6064820152608401610310565b8080602001905181019061040c9190610f07565b60408051602081019091525f8152604080516001600160a01b03841660208201525f91606091610803910160408051601f19818403018152908290526109fb91610d58565b5f60405180830381855afa9150503d805f8114610a33576040519150601f19603f3d011682016040523d82523d5f602084013e610a38565b606091505b50909250905081610a975760405162461bcd60e51b815260206004820152602360248201527f576974686472617761626c6520707265636f6d70696c652063616c6c206661696044820152621b195960ea1b6064820152608401610310565b8080602001905181019061040c9190611049565b60408051602081019091525f8152604080516001600160a01b0385811660208301528416918101919091525f9060609061080290820160408051601f1981840301815290829052610afb91610d58565b5f60405180830381855afa9150503d805f8114610b33576040519150601f19603f3d011682016040523d82523d5f602084013e610b38565b606091505b50909250905081610b965760405162461bcd60e51b815260206004820152602260248201527f5661756c7445717569747920707265636f6d70696c652063616c6c206661696c604482015261195960f21b6064820152608401610310565b808060200190518101906106eb9190611049565b803561ffff81168114610bbb575f5ffd5b919050565b5f60208284031215610bd0575f5ffd5b610bd982610baa565b9392505050565b6001600160a01b0381168114610bf4575f5ffd5b50565b5f60208284031215610c07575f5ffd5b8135610bd981610be0565b5f5f60408385031215610c23575f5ffd5b8235610c2e81610be0565b9150610c3c60208401610baa565b90509250929050565b63ffffffff81168114610bf4575f5ffd5b5f60208284031215610c66575f5ffd5b8135610bd981610c45565b6001600160401b0381168114610bf4575f5ffd5b5f5f60408385031215610c96575f5ffd5b8235610ca181610be0565b91506020830135610cb181610c71565b809150509250929050565b602080825282518282018190525f918401906040840190835b81811015610d2157835180516001600160a01b031684526020808201516001600160401b0390811682870152604092830151169185019190915290930192606090920191600101610cd5565b509095945050505050565b5f5f60408385031215610d3d575f5ffd5b8235610d4881610be0565b91506020830135610cb181610be0565b5f82518060208501845e5f920191825250919050565b5f60208284031215610d7e575f5ffd5b8151610bd981610c71565b634e487b7160e01b5f52604160045260245ffd5b604051606081016001600160401b0381118282101715610dbf57610dbf610d89565b60405290565b604051601f8201601f191681016001600160401b0381118282101715610ded57610ded610d89565b604052919050565b5f6080828403128015610e06575f5ffd5b50604051608081016001600160401b0381118282101715610e2957610e29610d89565b6040528251610e3781610c71565b81526020830151610e4781610c71565b60208201526040830151610e5a81610c71565b60408201526060830151610e6d81610c71565b60608201529392505050565b5f6060828403128015610e8a575f5ffd5b50610e93610d9d565b82518060070b8114610ea3575f5ffd5b81526020830151610eb381610c45565b60208201526040830151610ec681610c71565b60408201529392505050565b5f6060828403128015610ee3575f5ffd5b50610eec610d9d565b8251610ef781610c71565b81526020830151610eb381610c71565b5f60208284031215610f17575f5ffd5b81516001600160401b03811115610f2c575f5ffd5b8201601f81018413610f3c575f5ffd5b80516001600160401b03811115610f5557610f55610d89565b610f6460208260051b01610dc5565b80828252602082019150602060608402850101925086831115610f85575f5ffd5b6020840193505b82841015610ff25760608488031215610fa3575f5ffd5b610fab610d9d565b8451610fb681610be0565b81526020850151610fc681610c71565b60208201526040850151610fd981610c71565b6040820152825260609390930192602090910190610f8c565b9695505050505050565b5f6020828403121561100c575f5ffd5b604051602081016001600160401b038111828210171561102e5761102e610d89565b8060405250809150825161104181610c71565b905292915050565b5f60208284031215611059575f5ffd5b610bd98383610ffc56fea2646970667358221220f9872a30b9a54d83f8dd5e70ccf64730143cdb1e8ed929766560cbd8497cd47664736f6c634300081c0033","linkReferences":{}},"methodIdentifiers":{"L1_HYPE_TOKEN_NUMBER()":"b7dc64f7","L1_WRITE_ADDRESS()":"5a6de4c6","NATIVE_TRANSFER_ADDRESS()":"fcc52177","fromContractSpotToEvm(uint64)":"b8da0419","fromEvmToContractSpot()":"3acaacb2","fromEvmToSpot()":"6e0de009","fromEvmToStaking(address)":"02b8c621","fromSpotToEvm(uint64)":"a85fd4f5","getContractSpotBalance()":"5c85dc99","getContractStakeBalance()":"338dd567","getSpotBalance(address)":"a9a954dd","l1Read()":"bc218482","sendContractCDeposit(uint64)":"71bbcc79","sendContractCWithdrawal(uint64)":"ee29a11c","sendContractHypeOnL1(address,uint64)":"f4fce7f9","sendHypeOnL1(address,uint64)":"19695801"},"id":21}