{"abi":[{"type":"function","name":"delegations","inputs":[{"name":"user","type":"address","internalType":"address"}],"outputs":[{"name":"","type":"tuple[]","internalType":"struct L1Read.Delegation[]","components":[{"name":"validator","type":"address","internalType":"address"},{"name":"amount","type":"uint64","internalType":"uint64"},{"name":"lockedUntilTimestamp","type":"uint64","internalType":"uint64"}]}],"stateMutability":"view"},{"type":"function","name":"delegatorSummary","inputs":[{"name":"user","type":"address","internalType":"address"}],"outputs":[{"name":"","type":"tuple","internalType":"struct L1Read.DelegatorSummary","components":[{"name":"delegated","type":"uint64","internalType":"uint64"},{"name":"undelegated","type":"uint64","internalType":"uint64"},{"name":"totalPendingWithdrawal","type":"uint64","internalType":"uint64"},{"name":"nPendingWithdrawals","type":"uint64","internalType":"uint64"}]}],"stateMutability":"view"},{"type":"function","name":"l1BlockNumber","inputs":[],"outputs":[{"name":"","type":"uint64","internalType":"uint64"}],"stateMutability":"view"},{"type":"function","name":"markPx","inputs":[{"name":"index","type":"uint16","internalType":"uint16"}],"outputs":[{"name":"","type":"uint64","internalType":"uint64"}],"stateMutability":"view"},{"type":"function","name":"oraclePx","inputs":[{"name":"index","type":"uint16","internalType":"uint16"}],"outputs":[{"name":"","type":"uint64","internalType":"uint64"}],"stateMutability":"view"},{"type":"function","name":"position","inputs":[{"name":"user","type":"address","internalType":"address"},{"name":"perp","type":"uint16","internalType":"uint16"}],"outputs":[{"name":"","type":"tuple","internalType":"struct L1Read.Position","components":[{"name":"szi","type":"int64","internalType":"int64"},{"name":"leverage","type":"uint32","internalType":"uint32"},{"name":"entryNtl","type":"uint64","internalType":"uint64"}]}],"stateMutability":"view"},{"type":"function","name":"spotBalance","inputs":[{"name":"user","type":"address","internalType":"address"},{"name":"token","type":"uint64","internalType":"uint64"}],"outputs":[{"name":"","type":"tuple","internalType":"struct L1Read.SpotBalance","components":[{"name":"total","type":"uint64","internalType":"uint64"},{"name":"hold","type":"uint64","internalType":"uint64"},{"name":"entryNtl","type":"uint64","internalType":"uint64"}]}],"stateMutability":"view"},{"type":"function","name":"spotPx","inputs":[{"name":"index","type":"uint32","internalType":"uint32"}],"outputs":[{"name":"","type":"uint64","internalType":"uint64"}],"stateMutability":"view"},{"type":"function","name":"userVaultEquity","inputs":[{"name":"user","type":"address","internalType":"address"},{"name":"vault","type":"address","internalType":"address"}],"outputs":[{"name":"","type":"tuple","internalType":"struct L1Read.UserVaultEquity","components":[{"name":"equity","type":"uint64","internalType":"uint64"}]}],"stateMutability":"view"},{"type":"function","name":"withdrawable","inputs":[{"name":"user","type":"address","internalType":"address"}],"outputs":[{"name":"","type":"tuple","internalType":"struct L1Read.Withdrawable","components":[{"name":"withdrawable","type":"uint64","internalType":"uint64"}]}],"stateMutability":"view"}],"bytecode":{"object":"0x6080604052348015600e575f5ffd5b506110998061001c5f395ff3fe608060405234801561000f575f5ffd5b506004361061009b575f3560e01c80639070275911610063578063907027591461019f578063a69610d1146101b2578063bffe3486146101f7578063ce513b6f14610217578063ee1b5af114610242575f5ffd5b8063298c90051461009f57806329ebb2ba146100c457806337f980a5146100d75780633e37cfff1461014557806389cf7c8914610158575b5f5ffd5b6100a7610255565b6040516001600160401b0390911681526020015b60405180910390f35b6100a76100d2366004610bc0565b610334565b6100ea6100e5366004610bf7565b610414565b6040516100bb91905f6080820190506001600160401b0383511682526001600160401b0360208401511660208301526001600160401b0360408401511660408301526001600160401b03606084015116606083015292915050565b6100a7610153366004610bc0565b610523565b61016b610166366004610c12565b6105e7565b60408051825160070b815260208084015163ffffffff1690820152918101516001600160401b0316908201526060016100bb565b6100a76101ad366004610c56565b6106f4565b6101c56101c0366004610c85565b6107ba565b6040805182516001600160401b03908116825260208085015182169083015292820151909216908201526060016100bb565b61020a610205366004610bf7565b6108ce565b6040516100bb9190610cbc565b61022a610225366004610bf7565b6109b6565b60405190516001600160401b031681526020016100bb565b61022a610250366004610d2c565b610aab565b604080515f80825260208201928390529182916060916108099161027891610d58565b5f60405180830381855afa9150503d805f81146102b0576040519150601f19603f3d011682016040523d82523d5f602084013e6102b5565b606091505b509092509050816103195760405162461bcd60e51b8152602060048201526024808201527f4c31426c6f636b4e756d62657220707265636f6d70696c652063616c6c2066616044820152631a5b195960e21b60648201526084015b60405180910390fd5b8080602001905181019061032d9190610d6e565b9250505090565b6040805161ffff831660208201525f918291606091610807910160408051601f198184030181529082905261036891610d58565b5f60405180830381855afa9150503d805f81146103a0576040519150601f19603f3d011682016040523d82523d5f602084013e6103a5565b606091505b509092509050816103f85760405162461bcd60e51b815260206004820152601f60248201527f4f7261636c65507820707265636f6d70696c652063616c6c206661696c6564006044820152606401610310565b8080602001905181019061040c9190610d6e565b949350505050565b604080516080810182525f808252602082018190529181018290526060810191909152604080516001600160a01b03841660208201525f91606091610805910160408051601f198184030181529082905261046e91610d58565b5f60405180830381855afa9150503d805f81146104a6576040519150601f19603f3d011682016040523d82523d5f602084013e6104ab565b606091505b5090925090508161050f5760405162461bcd60e51b815260206004820152602860248201527f44656c656761746f727953756d6d61727920707265636f6d70696c652063616c6044820152671b0819985a5b195960c21b6064820152608401610310565b8080602001905181019061040c9190610df5565b6040805161ffff831660208201525f918291606091610806910160408051601f198184030181529082905261055791610d58565b5f60405180830381855afa9150503d805f811461058f576040519150601f19603f3d011682016040523d82523d5f602084013e610594565b606091505b509092509050816103f85760405162461bcd60e51b815260206004820152601d60248201527f4d61726b507820707265636f6d70696c652063616c6c206661696c65640000006044820152606401610310565b604080516060810182525f8082526020820181905291810191909152604080516001600160a01b038516602082015261ffff8416918101919091525f9060609061080090820160408051601f198184030181529082905261064791610d58565b5f60405180830381855afa9150503d805f811461067f576040519150601f19603f3d011682016040523d82523d5f602084013e610684565b606091505b509092509050816106d75760405162461bcd60e51b815260206004820152601f60248201527f506f736974696f6e20707265636f6d70696c652063616c6c206661696c6564006044820152606401610310565b808060200190518101906106eb9190610e79565b95945050505050565b6040805163ffffffff831660208201525f918291606091610808910160408051601f198184030181529082905261072a91610d58565b5f60405180830381855afa9150503d805f8114610762576040519150601f19603f3d011682016040523d82523d5f602084013e610767565b606091505b509092509050816103f85760405162461bcd60e51b815260206004820152601d60248201527f53706f74507820707265636f6d70696c652063616c6c206661696c65640000006044820152606401610310565b604080516060810182525f8082526020820181905291810191909152604080516001600160a01b03851660208201526001600160401b038416918101919091525f9060609061080190820160408051601f198184030181529082905261081f91610d58565b5f60405180830381855afa9150503d805f8114610857576040519150601f19603f3d011682016040523d82523d5f602084013e61085c565b606091505b509092509050816108ba5760405162461bcd60e51b815260206004820152602260248201527f53706f7442616c616e636520707265636f6d70696c652063616c6c206661696c604482015261195960f21b6064820152608401610310565b808060200190518101906106eb9190610ed2565b604080516001600160a01b03831660208201526060915f918391610804910160408051601f198184030181529082905261090791610d58565b5f60405180830381855afa9150503d805f811461093f576040519150601f19603f3d011682016040523d82523d5f602084013e610944565b606091505b509092509050816109a25760405162461bcd60e51b815260206004820152602260248201527f44656c65676174696f6e7320707265636f6d70696c652063616c6c206661696c604482015261195960f21b6064820152608401610310565b8080602001905181019061040c9190610f07565b60408051602081019091525f8152604080516001600160a01b03841660208201525f91606091610803910160408051601f19818403018152908290526109fb91610d58565b5f60405180830381855afa9150503d805f8114610a33576040519150601f19603f3d011682016040523d82523d5f602084013e610a38565b606091505b50909250905081610a975760405162461bcd60e51b815260206004820152602360248201527f576974686472617761626c6520707265636f6d70696c652063616c6c206661696044820152621b195960ea1b6064820152608401610310565b8080602001905181019061040c9190611049565b60408051602081019091525f8152604080516001600160a01b0385811660208301528416918101919091525f9060609061080290820160408051601f1981840301815290829052610afb91610d58565b5f60405180830381855afa9150503d805f8114610b33576040519150601f19603f3d011682016040523d82523d5f602084013e610b38565b606091505b50909250905081610b965760405162461bcd60e51b815260206004820152602260248201527f5661756c7445717569747920707265636f6d70696c652063616c6c206661696c604482015261195960f21b6064820152608401610310565b808060200190518101906106eb9190611049565b803561ffff81168114610bbb575f5ffd5b919050565b5f60208284031215610bd0575f5ffd5b610bd982610baa565b9392505050565b6001600160a01b0381168114610bf4575f5ffd5b50565b5f60208284031215610c07575f5ffd5b8135610bd981610be0565b5f5f60408385031215610c23575f5ffd5b8235610c2e81610be0565b9150610c3c60208401610baa565b90509250929050565b63ffffffff81168114610bf4575f5ffd5b5f60208284031215610c66575f5ffd5b8135610bd981610c45565b6001600160401b0381168114610bf4575f5ffd5b5f5f60408385031215610c96575f5ffd5b8235610ca181610be0565b91506020830135610cb181610c71565b809150509250929050565b602080825282518282018190525f918401906040840190835b81811015610d2157835180516001600160a01b031684526020808201516001600160401b0390811682870152604092830151169185019190915290930192606090920191600101610cd5565b509095945050505050565b5f5f60408385031215610d3d575f5ffd5b8235610d4881610be0565b91506020830135610cb181610be0565b5f82518060208501845e5f920191825250919050565b5f60208284031215610d7e575f5ffd5b8151610bd981610c71565b634e487b7160e01b5f52604160045260245ffd5b604051606081016001600160401b0381118282101715610dbf57610dbf610d89565b60405290565b604051601f8201601f191681016001600160401b0381118282101715610ded57610ded610d89565b604052919050565b5f6080828403128015610e06575f5ffd5b50604051608081016001600160401b0381118282101715610e2957610e29610d89565b6040528251610e3781610c71565b81526020830151610e4781610c71565b60208201526040830151610e5a81610c71565b60408201526060830151610e6d81610c71565b60608201529392505050565b5f6060828403128015610e8a575f5ffd5b50610e93610d9d565b82518060070b8114610ea3575f5ffd5b81526020830151610eb381610c45565b60208201526040830151610ec681610c71565b60408201529392505050565b5f6060828403128015610ee3575f5ffd5b50610eec610d9d565b8251610ef781610c71565b81526020830151610eb381610c71565b5f60208284031215610f17575f5ffd5b81516001600160401b03811115610f2c575f5ffd5b8201601f81018413610f3c575f5ffd5b80516001600160401b03811115610f5557610f55610d89565b610f6460208260051b01610dc5565b80828252602082019150602060608402850101925086831115610f85575f5ffd5b6020840193505b82841015610ff25760608488031215610fa3575f5ffd5b610fab610d9d565b8451610fb681610be0565b81526020850151610fc681610c71565b60208201526040850151610fd981610c71565b6040820152825260609390930192602090910190610f8c565b9695505050505050565b5f6020828403121561100c575f5ffd5b604051602081016001600160401b038111828210171561102e5761102e610d89565b8060405250809150825161104181610c71565b905292915050565b5f60208284031215611059575f5ffd5b610bd98383610ffc56fea2646970667358221220f9872a30b9a54d83f8dd5e70ccf64730143cdb1e8ed929766560cbd8497cd47664736f6c634300081c0033","linkReferences":{}},"methodIdentifiers":{"delegations(address)":"bffe3486","delegatorSummary(address)":"37f980a5","l1BlockNumber()":"298c9005","markPx(uint16)":"3e37cfff","oraclePx(uint16)":"29ebb2ba","position(address,uint16)":"89cf7c89","spotBalance(address,uint64)":"a69610d1","spotPx(uint32)":"90702759","userVaultEquity(address,address)":"ee1b5af1","withdrawable(address)":"ce513b6f"},"id":22}