{"abi":[{"type":"function","name":"sendCDeposit","inputs":[{"name":"_wei","type":"uint64","internalType":"uint64"}],"outputs":[],"stateMutability":"nonpayable"},{"type":"function","name":"sendCWithdrawal","inputs":[{"name":"_wei","type":"uint64","internalType":"uint64"}],"outputs":[],"stateMutability":"nonpayable"},{"type":"function","name":"sendIocOrder","inputs":[{"name":"asset","type":"uint32","internalType":"uint32"},{"name":"isBuy","type":"bool","internalType":"bool"},{"name":"limitPx","type":"uint64","internalType":"uint64"},{"name":"sz","type":"uint64","internalType":"uint64"}],"outputs":[],"stateMutability":"nonpayable"},{"type":"function","name":"sendSpot","inputs":[{"name":"destination","type":"address","internalType":"address"},{"name":"token","type":"uint64","internalType":"uint64"},{"name":"_wei","type":"uint64","internalType":"uint64"}],"outputs":[],"stateMutability":"nonpayable"},{"type":"function","name":"sendTokenDelegate","inputs":[{"name":"validator","type":"address","internalType":"address"},{"name":"_wei","type":"uint64","internalType":"uint64"},{"name":"isUndelegate","type":"bool","internalType":"bool"}],"outputs":[],"stateMutability":"nonpayable"},{"type":"function","name":"sendUsdClassTransfer","inputs":[{"name":"ntl","type":"uint64","internalType":"uint64"},{"name":"toPerp","type":"bool","internalType":"bool"}],"outputs":[],"stateMutability":"nonpayable"},{"type":"function","name":"sendVaultTransfer","inputs":[{"name":"vault","type":"address","internalType":"address"},{"name":"isDeposit","type":"bool","internalType":"bool"},{"name":"usd","type":"uint64","internalType":"uint64"}],"outputs":[],"stateMutability":"nonpayable"},{"type":"event","name":"CDeposit","inputs":[{"name":"user","type":"address","indexed":true,"internalType":"address"},{"name":"_wei","type":"uint64","indexed":false,"internalType":"uint64"}],"anonymous":false},{"type":"event","name":"CWithdrawal","inputs":[{"name":"user","type":"address","indexed":true,"internalType":"address"},{"name":"_wei","type":"uint64","indexed":false,"internalType":"uint64"}],"anonymous":false},{"type":"event","name":"IocOrder","inputs":[{"name":"user","type":"address","indexed":true,"internalType":"address"},{"name":"asset","type":"uint32","indexed":false,"internalType":"uint32"},{"name":"isBuy","type":"bool","indexed":false,"internalType":"bool"},{"name":"limitPx","type":"uint64","indexed":false,"internalType":"uint64"},{"name":"sz","type":"uint64","indexed":false,"internalType":"uint64"}],"anonymous":false},{"type":"event","name":"SpotSend","inputs":[{"name":"user","type":"address","indexed":true,"internalType":"address"},{"name":"destination","type":"address","indexed":true,"internalType":"address"},{"name":"token","type":"uint64","indexed":false,"internalType":"uint64"},{"name":"_wei","type":"uint64","indexed":false,"internalType":"uint64"}],"anonymous":false},{"type":"event","name":"TokenDelegate","inputs":[{"name":"user","type":"address","indexed":true,"internalType":"address"},{"name":"validator","type":"address","indexed":true,"internalType":"address"},{"name":"_wei","type":"uint64","indexed":false,"internalType":"uint64"},{"name":"isUndelegate","type":"bool","indexed":false,"internalType":"bool"}],"anonymous":false},{"type":"event","name":"UsdClassTransfer","inputs":[{"name":"user","type":"address","indexed":true,"internalType":"address"},{"name":"ntl","type":"uint64","indexed":false,"internalType":"uint64"},{"name":"toPerp","type":"bool","indexed":false,"internalType":"bool"}],"anonymous":false},{"type":"event","name":"VaultTransfer","inputs":[{"name":"user","type":"address","indexed":true,"internalType":"address"},{"name":"vault","type":"address","indexed":true,"internalType":"address"},{"name":"isDeposit","type":"bool","indexed":false,"internalType":"bool"},{"name":"usd","type":"uint64","indexed":false,"internalType":"uint64"}],"anonymous":false}],"bytecode":{"object":"0x6080604052348015600e575f5ffd5b506104e58061001c5f395ff3fe608060405234801561000f575f5ffd5b506004361061007a575f3560e01c8063414fa43711610058578063414fa437146100b95780634e4719ab146100cc57806384918d1e146100df578063db30aa53146100f2575f5ffd5b80630b0ac0ab1461007e578063258f0dcc146100935780632d9d5db6146100a6575b5f5ffd5b61009161008c366004610354565b610105565b005b6100916100a13660046103a3565b61015c565b6100916100b43660046103cc565b6101aa565b6100916100c73660046103fd565b6101f4565b6100916100da36600461041d565b610237565b6100916100ed3660046103fd565b610298565b610091610100366004610478565b6102d4565b6040805167ffffffffffffffff8085168252831660208201526001600160a01b0385169133917f09f4a089fd53b0b2cd536bc6d609a82b696295ebdcb91c7e216ad11c5223f1d991015b60405180910390a3505050565b60408051831515815267ffffffffffffffff831660208201526001600160a01b0385169133917f1a729f4ef39a715194f8084eec644ce6f8f01909dc15e5bb0197bb2b7b831376910161014f565b6040805167ffffffffffffffff84168152821515602082015233917f7a1295c51ef7a78228f94d80495169fb233db371130a00f6fb718bbef7345467910160405180910390a25050565b60405167ffffffffffffffff8216815233907fd0f1a003ed3bfa57c76de3702b6697f7121de9e9a083464dccb5c1bcf9cdb0d9906020015b60405180910390a250565b6040805163ffffffff86168152841515602082015267ffffffffffffffff8481168284015283166060820152905133917f7597e7aa503612e7889c5d1f11e2dee5fcefca0e76ab1d7b460f0f1f98d8ddd1919081900360800190a250505050565b60405167ffffffffffffffff8216815233907f41031f020c109ae2c55e59831bb87eb1903104fbc39b347fba3d1d344e6a20239060200161022c565b6040805167ffffffffffffffff8416815282151560208201526001600160a01b0385169133917f475ec8b67801429f179721112a6d5cd50cc1e2dd3d69d829f81b266e79cd026e910161014f565b80356001600160a01b0381168114610338575f5ffd5b919050565b803567ffffffffffffffff81168114610338575f5ffd5b5f5f5f60608486031215610366575f5ffd5b61036f84610322565b925061037d6020850161033d565b915061038b6040850161033d565b90509250925092565b80358015158114610338575f5ffd5b5f5f5f606084860312156103b5575f5ffd5b6103be84610322565b925061037d60208501610394565b5f5f604083850312156103dd575f5ffd5b6103e68361033d565b91506103f460208401610394565b90509250929050565b5f6020828403121561040d575f5ffd5b6104168261033d565b9392505050565b5f5f5f5f60808587031215610430575f5ffd5b843563ffffffff81168114610443575f5ffd5b935061045160208601610394565b925061045f6040860161033d565b915061046d6060860161033d565b905092959194509250565b5f5f5f6060848603121561048a575f5ffd5b61049384610322565b92506104a16020850161033d565b915061038b6040850161039456fea26469706673582212203380ddf91d174ec6f66de5b42b3111fb6c0a2be2b1d080906d3b1829c06cddd564736f6c634300081c0033","linkReferences":{}},"methodIdentifiers":{"sendCDeposit(uint64)":"414fa437","sendCWithdrawal(uint64)":"84918d1e","sendIocOrder(uint32,bool,uint64,uint64)":"4e4719ab","sendSpot(address,uint64,uint64)":"0b0ac0ab","sendTokenDelegate(address,uint64,bool)":"db30aa53","sendUsdClassTransfer(uint64,bool)":"2d9d5db6","sendVaultTransfer(address,bool,uint64)":"258f0dcc"},"id":23}